:03000000020800F3
:0C080000787FE4F6D8FD758132020847CD
:1009A40041542B434D47463D310D0041542B434D9B
:0E09B40047533D393931353939303635370042
:1009C200060CFF09A4FF09AF01080D010A1A010B69
:0709D20000010900013000E3
:1009330075A890C290C291E4F590120A061209DAE2
:1009430012088C12088C12088C12088C12088C1254
:0A095300088C12088C120A1880FEAE
:1009DA00E4FF75F003A4240CF8860308E6FA08E697
:0709EA00F91209F102095D99
:02095D008F31D8
:10095F00E4F532E532C395315018AB0CAA0DA90E50
:10096F008532827583001208EDF599120A1205324D
:02097F0080E115
:010981002253
:060A12003099FDC299229B
:0C0A0600759850758921758DFDD28E22E7
:10088C00E4FF0FBFFEFCE4FF0FBFFEFCE4FF0FBF55
:10089C00FEFCE4FF0FBFFEFCE4FF0FBFFEFCE4FF19
:1008AC000FBFFEFCE4FF0FBFFEFCE4FF0FBFFEFC1E
:1008BC00E4FF0FBFFEFCE4FF0FBFFEFCE4FF0FBF25
:1008CC00FEFCE4FF0FBFFEFCE4FF0FBFFEFCE4FFE9
:1008DC000FBFFEFCE4FF0FBFFEFCE4FF0FBFFEFCEE
:0108EC0022E9
:030023000209824D
:10098200C0E0C0D075D000C00030980FC2AF741262
:100992002530F8A6990530C298D2AFD000D0D0D079
:0209A200E03241
:040A18008530902273
:10080C00020933E493A3F8E493A34003F68001F2C6
:10081C0008DFF48029E493A3F85407240CC8C333ED
:10082C00C4540F4420C8834004F456800146F6DFBC
:10083C00E4800B01020408102040809009C2E47E81
:10084C00019360BCA3FF543F30E509541FFEE493B1
:10085C00A360010ECF54C025E060A840B8E493A378
:10086C00FAE493A3F8E493A3C8C582C8CAC583CAA3
:10087C00F0A3C8C582C8CAC583CADFE9DEE780BE5B
:0109D900001D
:1008ED00BB010CE58229F582E5833AF583E02250C0
:1008FD0006E92582F8E622BBFE06E92582F8E2220A
:0D090D00E58229F582E5833AF583E4932223
:1009F100E4FFFE12091A600C0FEF70010E09E97095
:050A0100F20A80EF2263
:10091A00BB010689828A83E0225002E722BBFE02DB
:09092A00E32289828A83E493220E
:00000001FF
