:030000000208F102
:0C08F100787FE4F6D8FD758132020938EA
:100A5A0041542B434D47463D310D0041542B434DE4
:0E0A6A0047533D39393135393930363537008B
:100AAE00060CFF0A5AFF0A6501080D010A1A010B0E
:070ABE0000010900013000F6
:100A95007F38120AF27F01120AF27F0E120AF27FE4
:090AA50006120AF27F80020AF237
:0E0AF2008FA0C2B5C2B6D2B7120A39C2B7225F
:0E0B00008FA0D2B5C2B6D2B7120A39C2B72240
:020A78008F31BC
:100A7A00E53175F00A842430FF120B00E53175F078
:0B0A8A000A84AFF074302FFF020B0055
:100A3900E4FFEFD39404748094805014758901E421
:100A4900F58AF58CD28C308DFDC28CC28D0F80E277
:010A5900227A
:1009C300120A9575A890C290C291E4F5A0F5901211
:1009D3000B0E120AC61208001208001208001208B1
:0F09E30000120800120800120800120B1A80FE02
:100AC600E4FF75F003A4240CF8860308E6FA08E6AA
:070AD600F9120ADD0209F22A
:0209F2008F3143
:1009F400E4F532E532C395315018AB0CAA0DA90EBB
:100A040085328275830012097DF599120B22053215
:020A140080E17F
:010A160022BD
:060B22003099FDC299228A
:0C0B0E00759850758921758DFDD28E22DE
:10080000E4FFEFC394FE7480948050030F80F3E400
:10081000FFEFC394FE7480948050030F80F3E4FFD5
:10082000EFC394FE7480948050030F80F3E4FFEFD5
:10083000C394FE7480948050030F80F3E4FFEFC3F1
:1008400094FE7480948050030F80F3E4FFEFC39410
:10085000FE7480948050030F80F3E4FFEFC394FE96
:100860007480948050030F80F3E4FFEFC394FE7410
:1008700080948050030F80F3E4FFEFC394FE7480F4
:10088000948050030F80F3E4FFEFC394FE748094D0
:100890008050030F80F3E4FFEFC394FE74809480D4
:1008A00050030F80F3E4FFEFC394FE7480948050F4
:1008B000030F80F3E4FFEFC394FE74809480500331
:1008C0000F80F3E4FFEFC394FE7480948050030F15
:1008D00080F3E4FFEFC394FE7480948050030F8094
:1008E000F3E4FFEFC394FE7480948050030F80F311
:0108F00022E5
:03002300020A17B7
:100A1700C0E0C0D075D000C00030980FC2AF7412CC
:100A27002530F8A6990530C298D2AFD000D0D0D0E3
:020A3700E032AB
:080B1A00853090AF30020A782B
:1008FD000209C3E493A3F8E493A34003F68001F245
:10090D0008DFF48029E493A3F85407240CC8C333FB
:10091D00C4540F4420C8834004F456800146F6DFCA
:10092D00E4800B0102040810204080900AAEE47EA2
:10093D00019360BCA3FF543F30E509541FFEE493BF
:10094D00A360010ECF54C025E060A840B8E493A386
:10095D00FAE493A3F8E493A3C8C582C8CAC583CAB1
:10096D00F0A3C8C582C8CAC583CADFE9DEE780BE69
:010AC5000030
:10097D00BB010CE58229F582E5833AF583E022502F
:10098D0006E92582F8E622BBFE06E92582F8E22279
:0D099D00E58229F582E5833AF583E4932293
:100ADD00E4FFFE1209AA600C0FEF70010E09E97018
:050AED00F20A80EF2277
:1009AA00BB010689828A83E0225002E722BBFE024B
:0909BA00E32289828A83E493227E
:00000001FF
