:03000000020800F3
:0C080000787FE4F6D8FD758115020847EA
:1008FC0041540041542B434D47463D310041542B4C
:10090C00434D47533D393931353939303635370058
:10091C00090BFF08FCFF08FFFF090901080D01097D
:04092C001A010A00A2
:08095E0012095212094680FE45
:0C094600AB0BAA0CA90D1209310208D25B
:0208D2008F1481
:1008D400E4F515E515C395145018AB0BAA0CA90D36
:1008E40085158275830012088CF599120966051521
:0808F40080E185089902096604
:060966003099FDC2992248
:0C095200759850758920758DFDD28E229D
:10080C0002095EE493A3F8E493A34003F68001F29B
:10081C0008DFF48029E493A3F85407240CC8C333ED
:10082C00C4540F4420C8834004F456800146F6DFBC
:10083C00E4800B010204081020408090091CE47E27
:10084C00019360BCA3FF543F30E509541FFEE493B1
:10085C00A360010ECF54C025E060A840B8E493A378
:10086C00FAE493A3F8E493A3C8C582C8CAC583CAA3
:10087C00F0A3C8C582C8CAC583CADFE9DEE780BE5B
:0109300000C6
:10088C00BB010CE58229F582E5833AF583E0225021
:10089C0006E92582F8E622BBFE06E92582F8E2226B
:0D08AC00E58229F582E5833AF583E4932285
:10093100E4FFFE1208B9600C0FEF70010E09E970B7
:05094100F20A80EF2224
:1008B900BB010689828A83E0225002E722BBFE023D
:0908C900E32289828A83E4932270
:00000001FF
