:03000000020800F3
:0C080000787FE4F6D8FD758132020847CD
:1009C10041542B434D47463D310D0041542B434D7E
:0E09D10047533D393931353939303635370025
:1009DF00060CFF09C1FF09CC01080D010A1A010B12
:0709EF0000010900013000C6
:050A350012093380FEF0
:1009330075A890C290C291E4F590120A231209F7A8
:1009430012088C12088C12088C12088C12088C1254
:08095300088C12088C0209A2B5
:02095B008F31DA
:10095D00E4F532E532C395315018AB0CAA0DA90E52
:10096D008532827583001208EDF599120A2F053232
:02097D0080E117
:01097F002255
:060A2F003099FDC299227E
:0C0A2300759850758921758DFDD28E22CA
:030023000209804F
:10098000C0E0C0D075D000C00030980FC2AF741264
:100990002530F8A6990530C298D2AFD000D0D0D07B
:0209A000E03243
:1009F700E4FF75F003A4240CF8860308E6FA08E67A
:070A0700F9120A0E02095B5F
:10088C00E4FF0FBFFEFCE4FF0FBFFEFCE4FF0FBF55
:10089C00FEFCE4FF0FBFFEFCE4FF0FBFFEFCE4FF19
:1008AC000FBFFEFCE4FF0FBFFEFCE4FF0FBFFEFC1E
:1008BC00E4FF0FBFFEFCE4FF0FBFFEFCE4FF0FBF25
:1008CC00FEFCE4FF0FBFFEFCE4FF0FBFFEFCE4FFE9
:1008DC000FBFFEFCE4FF0FBFFEFCE4FF0FBFFEFCEE
:0108EC0022E9
:1009A200E4F509E513B441057509018003E4F5098D
:0F09B200E509B40105D290C29122D291C29022E0
:10080C00020A35E493A3F8E493A34003F68001F2C3
:10081C0008DFF48029E493A3F85407240CC8C333ED
:10082C00C4540F4420C8834004F456800146F6DFBC
:10083C00E4800B01020408102040809009DFE47E64
:10084C00019360BCA3FF543F30E509541FFEE493B1
:10085C00A360010ECF54C025E060A840B8E493A378
:10086C00FAE493A3F8E493A3C8C582C8CAC583CAA3
:10087C00F0A3C8C582C8CAC583CADFE9DEE780BE5B
:0109F6000000
:1008ED00BB010CE58229F582E5833AF583E02250C0
:1008FD0006E92582F8E622BBFE06E92582F8E2220A
:0D090D00E58229F582E5833AF583E4932223
:100A0E00E4FFFE12091A600C0FEF70010E09E97077
:050A1E00F20A80EF2246
:10091A00BB010689828A83E0225002E722BBFE02DB
:09092A00E32289828A83E493220E
:00000001FF
